:020000040800F2
:1000000050070020250500082D0500082F050008D1
:100010003105000833050008350500080000000020
:1000200000000000000000000000000009020008BD
:100030003905000800000000AD0200080D030008AB
:100040003F0500083F0500083F0500083F05000880
:100050003F0500083F0500080506000819060008CE
:100060003F0500083F0500083F0500083F05000860
:100070003F0500083F0500083F0500083F05000850
:100080003F0500083F0500083F0500083F05000840
:100090003F0500083F0500083F0500083F05000830
:1000A0003F0500083F0500083F0500083F05000820
:1000B000C3050008D90500083F0500083F050008F2
:1000C0003F0500083F0500083F0500083F05000800
:1000D0003F0500083F0500083F0500083F050008F0
:1000E0003F0500083F0500083F0500083F050008E0
:1000F0003F0500083F0500083F0500083F050008D0
:100100003F0500083F050008EF0500083F0500080F
:100110003F0500083F0500083F0500083F050008AF
:100120003F0500083F0500083F0500083F0500089F
:100130003F0500083F0500083F0500083F0500088F
:100140003F0500083F0500083F0500083F0500087F
:100150003F0500083F0500083F0500083F0500086F
:100160003F0500083F0500083F0500083F0500085F
:100170003F0500083F0500083F0500083F0500084F
:100180003F0500083F050008DFF814D003F0ACFF7E
:100190000021024804F0F4FAFEE700008C59000840
:1001A0005007002080F309887047684680F309886B
:1001B00004480078C00714BF0220032080F314888D
:1001C0007047000054590008DFF818C0EFF30583AA
:1001D0001B0618BF6047EFF31483DB0708BF6047B7
:1001E00000DF704729490008DFF818C0EFF30583E6
:1001F0001B0618BF6047EFF31483DB0708BF604797
:1002000000DF7047A94B0008EFF30980816911F8FE
:10021000021C002933D190E80F1010B5E047BDE86B
:100220001040EFF3098C8CE807001D4B93E80600A3
:10023000914208BF704781B11EF0100F06BF2CED30
:10024000108A0120002081F820002CE9F00FC1F86D
:1002500024C00CB405F01AF80CBC1A60D2F824C003
:10026000BCE8F00F92F8200000281ABFBCEC108AFE
:100270006FF0120E6FF0020E8CF30988704710B504
:10028000084A1268914209D8074C54F8214090E876
:100290000F10A047EFF3098C8CE80F0010BD000091
:1002A000B40000200C4100080C41000810B504F017
:1002B000ABFEBDE81040174B93E80600914208BF23
:1002C0007047EFF3098C1EF0100F06BF2CED108A5B
:1002D0000120002081F820002CE9F00FC1F824C093
:1002E0000CB404F0D3FF0CBC1A60D2F824C0BCE8F4
:1002F000F00F92F8200000281ABFBCEC108A6FF0B3
:10030000120E6FF0020E8CF30988704710B505F0DD
:1003100083F8CEE7B40000200CB5002001900090D7
:100320007548006840F480307349086000BF724827
:10033000006800F4003000900198401C0190009883
:1003400018B90198B0F5A06FF1D16B48006810F4AE
:10035000003F02D00120009001E0002000900098B2
:10036000012845D164484030006840F0805062491F
:10037000403108606148006840F480405F4908608F
:100380005D48083000685C4908310860084600682C
:1003900040F4004008600846006840F4A05008603F
:1003A0005748091F0860081F006840F08070091F47
:1003B000086000BF5048006810F0007FFAD040F29B
:1003C0000560504908604C480830006820F0030080
:1003D0004949083108600846006840F0020008609A
:1003E00000BF45480830006800F00C000828F8D12C
:1003F0000CBD10B54448006840F4700042490860E4
:100400003D48006840F001003B49086000203A493F
:1004100008310860384800683C490840364908609F
:100420003B48091D0860081F006820F48020091F50
:100430000860002030490C310860FFF76DFF4FF075
:10044000006031498039086010BD70B5002000227D
:10045000022300240221284D08352D6805F00C00E8
:1004600020B1042806D0082834D107E0294D2A4EAF
:10047000356033E0294D284E35602FE01E4D2D1D8F
:100480002D68C5F380541C4D2D1D2D6805F03F01CE
:1004900054B1224DB5FBF1F5174E361D3668C6F343
:1004A000881605FB06F209E01A4DB5FBF1F5124E70
:1004B000361D3668C6F3881605FB06F20E4D2D1D57
:1004C0002D68C5F301456D1C6B00B2FBF3F5124EB0
:1004D000356003E00F4D104E356000BF00BF064D84
:1004E00008352D68C5F303150D4E705D0A4D2D6856
:1004F000C540094E356070BD0038024000700040B4
:1005000008544007003C024088ED00E0FFFFF6FE83
:10051000103000240024F4000000002000127A00B3
:10052000040000200648804706480047FEE7FEE733
:10053000FEE7FEE7FEE7FEE7FEE7FEE7FEE7FEE793
:10054000F30300088901000800BFFEE700BFFEE7D3
:1005500010B500F0E7FD00F0D2FA00F0BBF801F0B2
:100560002BF900F008F900F03BF901F0A9F800F0D0
:10057000F3FF01F022F801F052F80021494804F09D
:100580009FF9494908600021484804F099F9484911
:1005900008600021474804F093F9474908600021AA
:1005A000464804F08DF9464908600021454804F0AA
:1005B00087F94549086010BD10B5FFF7C9FF002055
:1005C00010BD10B50121880703F02CF801213A482D
:1005D000006804F04FF910BD10B501213B4803F04D
:1005E00021F803213248006804F044F910BD10B529
:1005F0000121374803F016F802212B48006804F067
:1006000039F910BD10B5012001F05BFC04212C4824
:10061000006804F02FF910BD10B5022001F051FC64
:1006200005212948006804F025F910BD0EB508E041
:100630004FF0FF31012004F037F98DE8070000F09A
:1006400088FCF5E70EB508E04FF0FF31022004F01A
:100650002BF98DE8070001F0DCF8F5E70EB508E0AE
:100660004FF0FF31032004F01FF98DE8070000F080
:10067000C8F9F5E70EB508E04FF0FF31042004F0AB
:1006800013F98DE8070000F068FAF5E70EB508E009
:100690004FF0FF31052004F007F98DE8070000F066
:1006A0003AFAF5E79C59000824000020AC590008EC
:1006B00028000020BC5900082C000020CC5900085C
:1006C00030000020DC590008340000200004004005
:1006D000000C00401CB540208DF8000000208DF873
:1006E000010004208DF8020000208DF803008DF831
:1006F0000400684603F055F91CBD00B585B0012122
:10070000102001F09BFE0121880301F0DBFE002098
:100710008DF8100001208DF8120000208DF81300D4
:100720000220039003A9EB4801F042FC01210420C0
:1007300002F0CAF9684601F094FB02200090002004
:100740008DF8040008208DF8050001208DF80600C2
:10075000684601F03FFB07208DF8080000208DF867
:1007600009008DF80A0001208DF80B0002A801F0A5
:100770007EF805B000BD00B587B040208DF81800A8
:1007800010208DF8190000208DF81A0006A803F03B
:100790005CF9AE20059001223C2105A803F051F838
:1007A0000F20049001223C2104A803F04AF87F2086
:1007B000039001223E2103A803F043F83820029061
:1007C0000122222102A803F03CF81020019001220E
:1007D000382101A803F035F8FFF78FFF07B000BDFF
:1007E00000B585B00121084601F028FE01218803EB
:1007F00001F068FE00208DF810008DF81300012034
:10080000039003A9B44801F0D3FB0021084602F08D
:100810005BF90120009000208DF8040008208DF87D
:10082000050001208DF80600684601F0D3FA062085
:100830008DF8080000208DF8090001208DF80A00CD
:100840008DF80B0002A801F012F805B000BD10B53C
:100850002DED068BB0EE408AF0EE608A9FED9F0B87
:1008600053EC102B51EC180B03F03FFA41EC100B3A
:10087000B0EE40AAF0EE60AA9FED9A0B53EC102B5D
:1008800051EC1A0B03F0A3FA41EC100BB0EE409AB6
:10089000F0EE609A51EC190B03F026FBBDEC068BD1
:1008A00010BDF0B52DED108B85B0044600F027FD8E
:1008B000074603F0FBFA41EC100BB0EE409AF0EE65
:1008C000609A00F08FFD074603F0F0FA41EC100B40
:1008D000B0EE40AAF0EE60AA00F0F7FD074603F084
:1008E000E5FA41EC100BB0EE408AF0EE608A53EC72
:1008F000182B51EC180B03F0F8F941EC100BB0EE8B
:1009000040EAF0EE60EA53EC1A2B51EC1A0B03F0BC
:10091000ECF941EC100BB0EE40FAF0EE60FA53EC5B
:100920001E2B51EC1F0B03F039F941EC100BB0EE0C
:1009300040DAF0EE60DA03F077FDB0EE40CAF0EE98
:1009400060CA53EC1C2B51EC190B03F040FA41EC3C
:10095000100BB0EE40BAF0EE60BA03F0F1FB8DED93
:10096000020B53EC182B51EC180B03F0BEF941ECC1
:10097000100BB0EE40EAF0EE60EA53EC192B51ECAC
:10098000190B03F0B2F941EC100BB0EE40FAF0EEA7
:1009900060FA53EC1E2B51EC1F0B03F0FFF841ECF7
:1009A000100BB0EE40DAF0EE60DA03F03DFDB0EE91
:1009B00040CAF0EE60CA53EC1C2B51EC1A0B03F04A
:1009C00006FA41EC100BB0EE40BAF0EE60BA03F05C
:1009D000B7FB8DED000B9DED020BFFF738FF0546D1
:1009E0009DED000BFFF733FF06462560666005B0FE
:1009F000BDEC108BF0BD10B50446204603F08DF819
:100A000010BD10B52DED088B84B001A8FFF7F3FFE2
:100A1000019803F04BFA41EC100BB0EE40BAF0EE47
:100A200060BA324890ED000B53EC102B51EC1B0BCD
:100A300003F055F941EC100BB0EE408AF0EE608AFD
:100A4000029803F033FA41EC100BB0EE40BAF0EE2E
:100A500060BA274890ED000B53EC102B51EC1B0BA8
:100A600003F03DF941EC100BB0EE409AF0EE609AC5
:100A7000039803F01BFA41EC100BB0EE40BAF0EE15
:100A800060BA1C4890ED000B53EC102B51EC1B0B83
:100A900003F025F941EC100BB0EE40AAF0EE60AA8D
:100AA00051EC180B03F020FA044600F00AFC51EC5C
:100AB000190B03F019FA044600F076FC51EC1A0BFE
:100AC00003F012FA044600F0E2FC04B0BDEC088B1F
:100AD00010BD0000001002400000024000000000B5
:100AE0000080764044174154FB2119403800002013
:100AF0004000002048000020FE480078704710B5F4
:100B00000020FC490870FC490870FC4803F08EFE88
:100B1000FB49086010BD10B54FF0FF31F848006880
:100B200003F09CFEF348007818B1F24800780128E1
:100B300003D10220EF4908700AE0EE48007802284D
:100B400003D0EC480078032802D10020E94908705E
:100B5000EB48006803F076FE10BD10B54FF0FF3192
:100B6000E748006803F07AFE00F01CFA00F01EFA75
:100B700000F020FA00F022FADE48007830B10128B7
:100B800008D002280AD0032810D10BE00120D9494F
:100B900008700BE00020D749087007E00320D54912
:100BA000087003E00220D349087000BF00BFD4489A
:100BB000006803F047FE10BD10B500F013FA00F016
:100BC0001CFA00F025FA00F02EFA00F037FA642043
:100BD00003F0CAFD10BDC848007818B90320C64903
:100BE000087012E0C4480078032803D10220C249EB
:100BF00008700AE0C0480078022803D10120BE49ED
:100C0000087002E00020BC4908707047BA480078BC
:100C100018B90120B849087012E0B74800780128D7
:100C200003D10220B44908700AE0B34800780228D2
:100C300003D10320B049087002E00020AE490870DB
:100C4000704710B500F0E8FA0446AE480068A042CC
:100C50000AD2AC480068201AAB4909680844AA497E
:100C60000860A84804600DE0A6480068A04209D9C1
:100C7000A4480068001BA4490968081AA249086032
:100C8000A0480460A0480068012805DDFFF7BEFF0A
:100C900000209D49086009E09B480068B0F1FF3FD3
:100CA00004DAFFF798FF002097490860924800781F
:100CB00030B101281FD0022814D0032824D108E025
:100CC00000F070F900F082F900F074F900F076F9A4
:100CD0001AE000F077F900F069F900F06BF900F024
:100CE0006DF911E000F05EF900F060F900F062F9D2
:100CF00000F074F908E000F055F900F057F900F041
:100D000069F900F05BF900BF00BF00F097F910BD72
:100D100010B517E07D4800687D4908607B48006891
:100D2000091D086079480068091D08607748006857
:100D3000091D086075480068401F7449086001205B
:100D400003F012FD714800680028E3DC17E06F48EB
:100D500000686F4908606D480068091D08606B48AD
:100D60000068091D086069480068091D0860674837
:100D70000068401D65490860012003F0F5FC6348E8
:100D80000068B0F57A7FE2DB10BD7CB56846FFF7FE
:100D900088FD009C019D14F15A0F14DB14F12D0FF6
:100DA00011DA00F00BF95B48006810F10A0F04D269
:100DB00000F023F900205749086056480068401E9B
:100DC000544908604AE014F12D0F14DB14F1050FAB
:100DD00011DA00F0F3F84F48006810F1140F04D254
:100DE00000F00BF900204B4908604A480068401E9B
:100DF0004849086032E014F1050F06DB052C04DADF
:100E000000F0DCF800F0D2F828E0052C12DB2D2CE5
:100E100010DA00F0CBF83F480068142804D900F03D
:100E200002F900203B4908603A480068401C3949F3
:100E3000086013E02D2C11DB5A2C0FDC00F0B6F803
:100E4000344800680A2804D900F0EDF80020314940
:100E5000086030480068401C2E49086015F15A0FA0
:100E600014DB15F12D0F11DA00F0A4F82A48006800
:100E700010F10A0F04D200F0B5F8002026490860EE
:100E800025480068401E244908605FE015F12D0FD9
:100E900014DB15F1050F11DA00F08CF81E4800681C
:100EA00010F1140F04D200F09DF800201A490860D8
:100EB00019480068401E1849086047E015F1050F01
:100EC00006DB052D04DA00F075F800F06BF83DE064
:100ED000052D27DB2D2D25DA00F064F80E4800687B
:100EE000142804D900F094F800200B4908600A483F
:100EF000006813E06800002069000020EC59000839
:100F0000640000205C0000206000002058000020E9
:100F1000340800405000002054000020401C1F49AD
:100F2000086013E02D2D11DB5A2D0FDC00F03AF88C
:100F30001A4800680A2804D900F06AF80020174906
:100F4000086016480068401C1449086000F076F8F4
:100F50007CBD10B54FF0FF311148006803F07EFCF6
:100F6000FFF7CAFD04460E48006803F06BFC34B17D
:100F7000012C07D0022C08D0032C0CD108E0FFF77D
:100F800004FF08E0FFF7C4FE05E0FFF75AFE02E0A9
:100F9000FFF712FE00BF00BF10BD0000540000208C
:100FA000640000200020584908707047002057490D
:100FB0000870704700205649087070470020554956
:100FC00008707047012050490870704701204F4950
:100FD0000870704701204E490870704701204D4944
:100FE000087070474848007818B1002046490870DA
:100FF00002E001204449087070474448007818B165
:1010000000204249087002E0012040490870704702
:101010003F48007818B100203D49087002E00120E7
:101020003B49087070473B48007818B100203949A7
:10103000087002E001203749087070473248007894
:1010400020B14FF47A703449086002E00020324940
:1010500008602E48007828B14FF47A702E49091D97
:10106000086003E000202C49091D0860284800782A
:1010700028B14FF47A7028490831086003E0002055
:101080002549083108602348007828B14FF47A7068
:1010900021490C31086003E000201F490C31086031
:1010A00070471CB50121082001F0C8F9684600F01E
:1010B000C7FF4FF48050009001208DF804000320FA
:1010C0008DF8050000208DF806008DF807006946B0
:1010D000124800F06DFF1CBD10B51148007848B1F2
:1010E00000224FF480510D4800F0E2FF00200C492F
:1010F000087007E001221103084800F0D9FF012021
:101100000749087010BD00006A0000206B00002035
:101110006C0000206D00002034080040000C0240EC
:101120006E00002010B5F04803F080FBEF49086026
:10113000EF4803F07BFBEF490860EF4803F076FBD4
:10114000EE490860EE4803F071FBEE49086010BDFF
:1011500010B504464FF0FF31EA48006803F07EFB0B
:10116000E9480460E748006803F06CFB10BD70B507
:101170002DED048B0025002400BF24E0284602F05A
:1011800095FE41EC100BB0EE409AF0EE609ADF480D
:1011900000EBC40090ED001BB0EE410AF0EE610AD6
:1011A00053EC102B51EC190B02F0F8FC41EC100B36
:1011B000B0EE408AF0EE608A51EC180B02F094FE1B
:1011C0000546601CC4B21E2CD8DB1E2095FBF0F631
:1011D0003046FFF7BDFFBDEC048B70BD10B5044673
:1011E000204602F074FE41EC100BC848C84909784B
:1011F00000EBC10080ED000BC54800781D2803D12D
:101200000020C349087004E0C1480078401CC04970
:101210000870FFF7ACFF10BD10B54FF0FF31B948B3
:10122000006803F01BFBB8480468B648006803F088
:1012300009FB204610BD10B504464FF0FF31AB4806
:10124000006803F00BFBB3480460A848006803F093
:10125000F9FA10BD70B52DED048B0025002400BFF8
:1012600024E0284602F022FE41EC100BB0EE409A3A
:10127000F0EE609AA84800EBC40090ED001BB0EEC1
:10128000410AF0EE610A53EC102B51EC190B02F0FD
:1012900085FC41EC100BB0EE408AF0EE608A51EC18
:1012A000180B02F021FE0546601CC4B20A2CD8DBE4
:1012B0000A2095FBF0F63046FFF7BDFFBDEC048B2E
:1012C00070BD10B50446204602F0F0FD41EC100B55
:1012D00091489249097800EBC10080ED000B8F48DE
:1012E0000078092803D100208C49087004E08B485D
:1012F0000078401C89490870FFF7ACFF10BD10B59D
:101300004FF0FF317948006803F0A8FA814804687B
:101310007648006803F096FA204610BD10B50446E2
:101320004FF0FF317348006803F098FA7C4804607E
:101330007048006803F086FA10BD70B52DED048B7F
:101340000025002400BF24E0284602F0AFFD41EC58
:10135000100BB0EE409AF0EE609A724800EBC400B9
:1013600090ED001BB0EE410AF0EE610A53EC102B39
:1013700051EC190B02F012FC41EC100BB0EE408A5C
:10138000F0EE608A51EC180B02F0AEFD0546601CD1
:10139000C4B20A2CD8DB0A2095FBF0F63046FFF7E2
:1013A000BDFFBDEC048B70BD10B50446204602F0B5
:1013B0007DFD41EC100B5B485B49097800EBC100F7
:1013C00080ED000B58480078092803D100205649C9
:1013D000087004E054480078401C53490870FFF737
:1013E000ACFF10BD10B54FF0FF314248006803F06C
:1013F00035FA4B4804683F48006803F023FA20465A
:1014000010BD10B504464FF0FF313C48006803F0B2
:1014100025FA464804603948006803F013FA10BD05
:1014200070B52DED048B0025002400BF24E0284674
:1014300002F03CFD41EC100BB0EE409AF0EE609AE9
:101440003B4800EBC40090ED001BB0EE410AF0EE0B
:10145000610A53EC102B51EC190B02F09FFB41EC8D
:10146000100BB0EE408AF0EE608A51EC180B02F0DF
:101470003BFD0546601CC4B20A2CD8DB0A2095FB54
:10148000F0F63046FFF7BDFFBDEC048B70BD10B524
:101490000446204602F00AFD41EC100B2448254981
:1014A000097800EBC10080ED000B22480078092884
:1014B00003D100201F49087004E01E480078401C3A
:1014C0001C490870FFF7ACFF10BD10B54FF0FF319D
:1014D0000A48006803F0C2F9144804680748006825
:1014E00003F0B0F9204610BD185A0008840000200F
:1014F0001C5A000888000020205A00088C00002098
:10150000245A00089000002080000020D001002014
:101510007300002074000020E00000207000002014
:101520007800002030010020710000207C000020A5
:10153000800100207200002008B51D208DF80000F9
:1015400000208DF8010001208DF802008DF80300C5
:10155000684600F08CF908BD0EB5FFF7EDFF0121DC
:10156000022000F09EFF49F64040ADF80000002048
:10157000ADF802002A2001900020ADF8080069466D
:101580007B4801F086FB01221146794802F022F8DF
:101590000121774801F006FC0EBD08B51C208DF82E
:1015A000000000208DF8010001208DF802008DF868
:1015B0000300684600F05BF908BD0EB5FFF7EDFFCC
:1015C0000121084600F06DFF49F64040ADF80000EB
:1015D0000020ADF80200142001900020ADF80800B2
:1015E00069464FF0804001F054FB012211469007FC
:1015F00001F0F0FF0121880701F0D4FB0EBD08B512
:1016000032208DF8000000208DF8010001208DF8B7
:1016100002008DF80300684600F029F908BD0EB5F8
:10162000FFF7EDFF0121082000F03BFF49F64040A5
:10163000ADF800000020ADF802003220019000203B
:10164000ADF8080069464B4801F023FB0122114622
:10165000484801F0BFFF0121464801F0A3FB0EBD41
:101660001CB50121042000F01CFF0121082000F01E
:10167000E5FE4FF47040009002208DF80400032036
:101680008DF8050000208DF806008DF807006946EA
:10169000394800F08DFC02220C21374800F013FD80
:1016A00002220D21344800F00EFD02220E213248A4
:1016B00000F009FD02220F212F4800F004FD1CBD9F
:1016C00010B588B0FFF7CCFF64244FF47A70069011
:1016D000ADF814400020ADF81C00ADF8160005A9C7
:1016E000264801F0D6FA6020ADF800000020ADF8E1
:1016F0000C000120ADF802000020029069461F484E
:1017000001F05CFB08211D4801F0E5FC0120ADF86B
:101710000200002002906946184801F088FB082169
:10172000164801F0E1FC0120ADF802000020029013
:101730006946124801F0C8FB0821104801F0E1FC9D
:101740000120ADF802000020029069460B4801F02C
:1017500021FC0821094801F0DDFC0121074801F0C6
:1017600003FB0121054801F01DFB08B010BD00007E
:1017700000040040000C0040000C02400008004043
:10178000014600EE101AB8EE400A9FED301AC0EE86
:10179000010A9FED2F0AB0EE081A11EE200A9FED04
:1017A0002D1AC0EE010AB3EE090A30EE800ABCEE33
:1017B000C00A10EE100A704700B58BB00121080274
:1017C00000F080FE002001900290049001A800F03B
:1017D000F5F8002005908DF818000790099005A9EC
:1017E0001D4800F0BCF801211B4800F003F901205E
:1017F00000F01EF9072301221021174800F03AF9E2
:10180000154800F093F90121134800F0A9F90BB035
:1018100000BD10B500BF02210F4800F0A9FA002852
:10182000F9D002210C4800F0ACFA0B4800F0BAF9EC
:101830000A49088008460088FFF7A2FF08490860A7
:1018400008460068FFF7CAFC10BD00000000804594
:101850005C8F423F0AD7233B0020014098000020C4
:101860009400002033490143334A1160704770B53A
:10187000002100230F22C47824B32F4C246804F4E1
:10188000E064C4F5E064C4F30721C1F10404E3B2E9
:101890000A4144789C40E1B28478144021430C070B
:1018A000210E264C05786155047804F01F050124AB
:1018B000AC4005786D114FF0E02606EB8505C5F8C4
:1018C000004109E0047804F01F040125A5401C4CE8
:1018D0000678761144F8265070BD1A4A0A40024331
:1018E000154B1B1F1A60704739B1134A121D12683D
:1018F0000243114B1B1D1A6006E00F4A121D1268AD
:1019000082430D4B1B1D1A607047042808D14FF00D
:10191000E021096941F004014FF0E022116107E084
:101920004FF0E021096921F004014FF0E02211613C
:10193000704700000000FA050CED00E000E400E054
:1019400080E100E080FFFF1F10B50121080200F0D8
:1019500021FE00214FF4807000F01CFE10BD30B558
:101960000246002000235068F84C20400D790C6896
:1019700044EA0524204350609068F54C2040D1E9AA
:1019800003542C438D682C434D7944EA450420438D
:101990009060D06A20F470000C7D641EE4B2234392
:1019A00040EA0350D06230BD0021016001714171F5
:1019B0008160C16001610121017570470021E54A24
:1019C0001168E54A01EA0201D0E9002342EA030274
:1019D000836842EA0302C36842EA030242EA010161
:1019E000DE4AC2F804137047002101604160816043
:1019F000C160704721B1826842F00102826003E059
:101A0000826822F00102826070470A460021416824
:101A1000D34B194011434160704741628262704765
:101A20000A460021416821F01F01114341607047BF
:101A300038B1C849096841F40001C84AC2F8041322
:101A400006E0C449096821F40001C44AC2F804133D
:101A5000704738B1BF49096841F48001BF4AC2F8F4
:101A6000041306E0BB49096821F48001BB4AC2F8AF
:101A700004137047F0B504460D4600200021092DDF
:101A800011DDE068A5F10A0606EB4607072606FA0F
:101A900007F18843A5F10A0606EB460603FA06F1AC
:101AA0000843E0600CE0206905EB4507072606FACD
:101AB00007F1884305EB450603FA06F10843206168
:101AC000072A0FDA606B561E06EB86071F2606FAFA
:101AD00007F18843561E06EB860605FA06F1084311
:101AE000606322E00D2A0FDA206BD61F06EB860713
:101AF0001F2606FA07F18843D61F06EB860605FA6D
:101B000006F10843206310E0E06AA2F10D0606EB3F
:101B100086071F2606FA07F18843A2F10D0606EB99
:101B2000860605FA06F10843E062F0BD816841F0DF
:101B3000804181607047014600208A6812F4800F5E
:101B400001D0012000E00020704721B1826842F4FA
:101B50008062826003E0826822F480628260704763
:101B600021B1826842F00202826003E0826822F0C2
:101B700002028260704710B50A46002100234168C6
:101B800021F46041531E41EA4331416010BD21B14F
:101B9000426842F40062426003E0426822F400625C
:101BA000426070470146C86C80B270476D4800685B
:101BB000704721B1826842F48072826003E08268DB
:101BC00022F480728260704721B1826842F4007210
:101BD000826003E0826822F400728260704738B14C
:101BE0005C49096841F400515C4AC2F8041306E0FC
:101BF0005849096821F40051584AC2F80413704743
:101C0000F0B504461546002000220026092911DD02
:101C1000E068A1F10A0707EB470C072707FA0CF267
:101C20009043A1F10A0707EB470703FA07F21043B5
:101C3000E0600CE0206901EB410C072707FA0CF289
:101C4000904301EB410703FA07F210432061A06BB8
:101C5000C0F30156EF1C06F1010CA7EB0C0707EBD4
:101C6000870C1F2707FA0CF29043EF1C06F1010CBA
:101C7000A7EB0C0707EB870701FA07F21043A063F5
:101C8000F0BD10B50A4600210023816B21F44011FC
:101C9000531E41EA0351816310BD08B50023009330
:101CA0000090009B0B440093009B1A6008BD0A46FD
:101CB0000021816821F470211143816070470A4638
:101CC0000021816821F440111143816070478168CF
:101CD00041F4800181607047014600208A6812F457
:101CE000800F01D0012000E00020704721B1426840
:101CF00042F48062426003E0426822F48062426003
:101D0000704721B1426842F48052426003E0426869
:101D100022F480524260704708B5024600200090CD
:101D2000009201F12800009B184400900098006880
:101D300080B208BD10B50B460021D9B2012404FAC7
:101D400001F18AB144680C43446010E0FFFEFFFCDF
:101D5000FDF7FFC004230140E030FCFF00200140FC
:101D6000FFFD3FFF0823014044688C43446010BDE1
:101D70000246002013680B4201D0012000E0002041
:101D80007047CA430260704770B5024600200023C6
:101D900000240B12556801268E4005EA06041568DA
:101DA0001D4202D00CB1012000E0002070BD0022D5
:101DB0000A12D34303607047002044490860091D9C
:101DC0000860091D0860091D086041483F49143139
:101DD0000860704700213D498279002A3AD00A46BE
:101DE000126803689A430B461A600A1D126803685A
:101DF0009A430B1D1A60027911440A6803681A435A
:101E00000A60324A0832126803689A432F4B08333B
:101E10001A601A1D126803689A432C4B0C331A601F
:101E20004279102A0ED11A1F126803681A43274BF1
:101E300008331A601A1D126803681A43234B0C33C7
:101E40001A600DE02149427911440A6803681A4377
:101E50000A6005E0027911440A6803689A430A603F
:101E600070470021016001710C21417100218171D5
:101E700070471649103109680143144A1032116045
:101E8000704701460020114A143212680A4201D0FC
:101E9000012000E0002070470C49143108607047B1
:101EA000014600200022094B1B6803EA0102074B90
:101EB00014331B680B4202D00AB1012000E000205D
:101EC000704702491431086070470000003C01402F
:101ED000FFFF7F0010B504468C48844208D10121E1
:101EE000084600F000FB0021012000F0FCFA5EE053
:101EF0008748844208D10121022000F0F4FA002131
:101F0000022000F0F0FA52E08248844208D1012118
:101F1000042000F0E8FA0021042000F0E4FA46E092
:101F20007D48844208D10121082000F0DCFA00211C
:101F3000082000F0D8FA3AE07848844208D101211C
:101F4000102000F0D0FA0021102000F0CCFA2EE092
:101F50007348844208D10121202000F0C4FA0021F6
:101F6000202000F0C0FA22E06E48844208D101210E
:101F7000402000F0B8FA0021402000F0B4FA16E04A
:101F80006948844208D10121802000F0ACFA002188
:101F9000802000F0A8FA0AE06448844207D10121B9
:101FA000801500F0A0FA0021A01500F09CFA10BDE9
:101FB000F0B50A4600210023002400BF3DE00125C2
:101FC00005FA01F3156805EA03049C4234D105685B
:101FD0004F000326BE40B543056015794E00B5405D
:101FE0000668354305601579012D02D01579022D5B
:101FF00016D185684F000326BE40B54385605579EC
:102000004E00B540866835438560456801268E40A0
:10201000B5434560456896798E40B6B23543456014
:10202000C5684F000326BE40B543C560D5794E0054
:10203000B540C6683543C560491C1029BFD3F0BD03
:102040004FF6FF7101600021017141718171C17111
:10205000704708B54FF480320092009A0A4300920C
:10206000009AC261C161009AC261C2690092C269EC
:10207000009208BD0246002013690B4201D00120E6
:1020800000E0002070470146086980B270470246B0
:10209000002053690B4201D0012000E0002070476E
:1020A0000146486980B27047018370474183704799
:1020B0000AB1018300E04183704741617047426982
:1020C0004A4042617047F0B5002300244D07ED0EF1
:1020D00002FA05F3CE1000F1200555F826504E0700
:1020E000F70E0F26BE40B543CF1000F1200646F88C
:1020F0002750CE1000F1200555F8265045EA03047C
:10210000CE1000F1200545F82640F0BD0000024049
:102110000004024000080240000C0240001002408F
:102120000014024000180240001C0240002002403F
:10213000FA48006840F00100F84908600020F749BB
:1021400008310860F5480068F5490840F34908601F
:10215000F448091D0860081F006820F48020091F4A
:1021600008600020ED490C31086070470021EB4AFF
:10217000921C117011460870704710B5014600227C
:10218000002300204A11012A02D1E44C236808E010
:10219000022A03D1E14C7034236802E0DF4C74342E
:1021A000236801F01F02012494401C4201D0012049
:1021B00000E0002010BD38B500200090002400256C
:1021C00000BF3120FFF7D9FF05460098401C009062
:1021D0000098B0F5A06F01D0002DF2D03120FFF7AC
:1021E000CCFF08B1012400E00024204638BD0146A0
:1021F0000020CA4A106820F0F80040EAC1001060D0
:102200007047C949086070470021C44A7032117094
:102210001170012802D004280AD104E00121BF4A2C
:102220007032117005E00521BC4A7032117000E077
:1022300000BF00BF7047BD490860704770B5049C7F
:1022400041EA82150126C6EB530645EA06450543D9
:1022500045EA0465B14E361D356070BDB249086669
:102260007047820142EA0172AC4B84331A607047B6
:10227000AD4988667047AC49C86470470246002083
:10228000A64B0833186820F0EC6042EA01031843BB
:10229000A24B083318607047024600209F4B08335A
:1022A000186820F0784042EA010318439B4B08333A
:1022B0001860704701460020984A0832106820F0E4
:1022C000030008431060704794480830006800F02D
:1022D0000C00704701460020904A0832106820F038
:1022E000F000084310607047014600208B4A083216
:1022F000106820F4E0500843106070470146002049
:10230000864A0832106820F4604040EAC10010603C
:102310007047F0B500210022002402250026022388
:102320007E4F08373F6807F00C0121B1042905D022
:10233000082937D105E07E4F076036E07D4F076002
:1023400033E0764F3F1D3F68C7F38056734F3F1D04
:102350003F6807F03F036EB1764FB7FBF3F7DFF846
:10236000BCC10CF1040CDCF800C0CCF3881C07FBEA
:102370000CF40CE06E4FB7FBF3F7DFF8A0C10CF1E3
:10238000040CDCF800C0CCF3881C07FB0CF4634F92
:102390003F1D3F68C7F301477F1C7D00B4FBF5F785
:1023A000076002E0624F076000BF00BF5B4F083765
:1023B0003F6807F0F00109095F4F7A5C0768D74072
:1023C0004760564F08373F6807F4E051890A5A4F73
:1023D0007A5C4768D7408760504F08373F6807F4FA
:1023E0006041490B544F7A5C4768D740C760F0BDE5
:1023F000002100F44072B2F5407F0AD1474A08320A
:10240000116821F4F8114D4A02401143434A083241
:102410001160424A70321268C0F30B031A433F4BFB
:1024200070331A60704741494439086070473F492A
:1024300040390860704742490860704739B1374AEF
:10244000303212680243354B30331A6006E0334AAB
:10245000303212688243314B30331A60704739B1E1
:102460002E4A3432126802432C4B34331A6006E091
:102470002A4A343212688243284B34331A60704738
:1024800039B1264A383212680243244B38331A6075
:1024900006E0224A383212688243204B38331A60F1
:1024A000704739B11D4A4032126802431B4B40331A
:1024B0001A6006E0194A403212688243174B4033D3
:1024C0001A60704739B1154A443212680243134BFF
:1024D00044331A6006E0114A4432126882430F4BBB
:1024E00044331A60704739B10C4A10321268024303
:1024F0000A4B10331A6006E0084A10321268824311
:10250000064B10331A607047E1B1044A1432126866
:102510000243024B14331A6019E0000000380240F5
:10252000FFFFF6FE1030002400004742800E4742B5
:102530000024F40000127A009A000020FFFCFF0F34
:102540005C0147425B4A126882435A4B1A607047EB
:1025500039B1584A121D12680243564B1B1D1A60AE
:1025600006E0544A121D12688243524B1B1D1A602A
:10257000704739B14F4A0C32126802434D4B0C334D
:102580001A6006E04B4A0C3212688243494B0C3306
:102590001A60704739B1474A103212680243454BFE
:1025A00010331A6006E0434A103212688243414BEE
:1025B00010331A60704739B13E4A3C321268024308
:1025C0003C4B3C331A6006E03A4A3C321268824384
:1025D000384B3C331A60704739B1364A4032126882
:1025E0000243344B40331A6006E0324A40321268EC
:1025F0008243304B40331A60704739B12D4A443220
:10260000126802432B4B44331A6006E0294A4432D5
:1026100012688243274B44331A60704739B1254A08
:102620004C3212680243234B4C331A6006E0214AB5
:102630004C32126882431F4B4C331A60704739B1D9
:102640001C4A5032126802431A4B50331A6006E09B
:10265000184A503212688243164B50331A60704742
:1026600039B1144AD21F12780243124BDB1F1A7081
:1026700006E0104AD21F127882430E4BDB1F1A70FD
:1026800070470C486030006840F080700949603144
:102690000860704701460020064A083A12680A425C
:1026A00001D0012000E0002070470249891F087016
:1026B000704700001438024010B50446F6488442C2
:1026C00008D101218014FFF765FF0021A014FFF756
:1026D00061FF16E0F148844208D101210014FFF7A0
:1026E00048FF00212014FFF744FF0AE0EC48844231
:1026F00007D10121C013FFF73CFF0021E013FFF7D2
:1027000038FF10BD10B50022028802F441520B8838
:102710004C8823438C882343CC8823430C89234350
:102720004C8923438C892343CC8923431A43028059
:10273000838B4FF2FF74234083830B8A038210BD87
:102740002DE9F04F00250223002401270022002656
:10275000944690469146B0F81CA04FF2400B0AEA0E
:102760000B0AA0F81CA04FF0020AA0F820A0858B4D
:10277000D1F808A0BAF1020F01D100BF6AE0B1F8A8
:1027800004A0BAF1000F01D1012700E00227DFF811
:1027900014A3DAF800A01AF4000F09D0DFF804A39C
:1027A000DAF800A02AF4000ADFF8F8B2CBF800A0AB
:1027B000DFF8F0A20AF17C0ADAF800A0CAF3881860
:1027C000DFF8E0A20AF17C0ADAF800A0CAF3027985
:1027D000DFF8D0A2AAF1040ADAF800A00AF03F0C50
:1027E000DFF8C4A2BAFBFCFA0AFB08FABAFBF9F656
:1027F000B1F806A0BAF5007F0ED14FEA162A0AEB0F
:102800008A0A4FEA4A0AD1F808B0BAFBFBFA0AF181
:10281000050A1FFA8AF20FE04FEA471AB6FBFAFAE6
:102820000AEB8A0A4FEA4A0AD1F808B0BAFBFBFA67
:102830000AF1050A1FFA8AF24FF00A0AB2FBFAF20D
:1028400002F00104A2EB040ACAF34F034FF6FF7A29
:102850000AEA0424022B01DBFF2B01DD0223002402
:10286000B1F806A04AEA040A4AEA030AA0F820A03E
:10287000B1F804A0B1F80CB04AEA0B0AB1F802B002
:102880004AEA0B0AB1F800B04AEA0B0A4AF4006AB5
:102890004AEA05058583BDE8F08F0021018041806B
:1028A0008180C180018141818181C18107210182B3
:1028B00070470021018041808180C18002218160B8
:1028C00000218181704721B1028842F040020280DC
:1028D00004E002884FF6BF731A400280704721B1AE
:1028E000828B42F48062828304E0828B4FF6FF3356
:1028F0001A408283704702884FF2FF731A400280A9
:1029000002880A4302807047B1F5804F04D10288E3
:1029100042F48042028004E002884BF6FF731A40C2
:1029200002807047A1F57E42FF3A04D0028842F44B
:102930008072028004E002884FF6FF631A40028032
:10294000704721B1828842F00402828004E08288CC
:102950004FF6FB731A408280704721B1828842F0A3
:102960001002828004E082884FF6EF731A40828062
:10297000704730B500220023848B4FF240052C4075
:10298000848302240484828B0C88B4F5007F01D0F8
:102990000C8814B94FF4807308E00C88B4F5407FBC
:1029A00003D00C88B4F5807F00D100238C888D89FA
:1029B0002C434D882C431C4344F4006422438283FF
:1029C00030BD0146888970478181704721B10288F6
:1029D00042F40052028004E002884DF6FF731A4070
:1029E00002807047018841F480510180704702469F
:1029F0000020012901D0108B00E0908A7047014629
:102A0000088A70471AB183880B43838002E0838869
:102A10008B438380704730B5002400230C110125BF
:102A2000A540ABB21AB185881D43858002E0858838
:102A30009D43858030BD0246002013890B4201D0A2
:102A4000012000E000207047CA4302817047F0B5C2
:102A50000246002000240023002501F00F07012674
:102A6000BE40B4B20B1101269E40B3B2968806EA6E
:102A700003051689264202D00DB1012000E0002096
:102A8000F0BD10B5002201F00F040123A3409AB25B
:102A9000D343038110BD00000030014000380040E6
:102AA000003C00400838024000127A0010B50121B5
:102AB0008803FFF76FFD00214FF48040FFF76AFDA8
:102AC00010BD1A490860704730B500228B071C0FF3
:102AD0000F2303FA04F2154B08338C1053F82430FB
:102AE0009343124C08348D1044F8253023468C1043
:102AF00053F824308C07240F00FA04F423430B4CC2
:102B000008348D1044F8253030BD094908607047FD
:102B1000084908607047002004492031096811F411
:102B2000807F01D0012000E0002070470038014084
:102B3000DC0027420004274210B50446FE488442C8
:102B400008D101210846FFF725FD00210120FFF7EC
:102B500021FD9DE0B4F1804F08D101210846FFF727
:102B600008FD00210120FFF704FD91E0F3488442B5
:102B700008D101210220FFF7FCFC00210220FFF711
:102B8000F8FC85E0EE48844208D101210420FFF7DB
:102B9000F0FC00210420FFF7ECFC79E0E9488442D6
:102BA00008D101210820FFF7E4FC00210820FFF7ED
:102BB000E0FC6DE0E448844208D101211020FFF7D9
:102BC000D8FC00211020FFF7D4FC61E0DF488442EC
:102BD00008D101212020FFF7CCFC00212020FFF7A5
:102BE000C8FC55E0DA48844208D101210220FFF7F1
:102BF000D1FC00210220FFF7CDFC49E0D5488442FA
:102C000009D101210804FFF7C5FC00214FF48030F1
:102C1000FFF7C0FC3CE0D048844209D101214804C0
:102C2000FFF7B8FC00214FF40030FFF7B3FC2FE0B2
:102C3000CA48844209D101218804FFF7ABFC002176
:102C40004FF48020FFF7A6FC22E0C548844208D15B
:102C500001214020FFF78DFC00214020FFF789FC77
:102C600016E0C048844208D101218020FFF781FC92
:102C700000218020FFF77DFC0AE0BB48844207D199
:102C800001218015FFF775FC0021A015FFF771FCED
:102C900010BD00220288A84B98420ED0AC4B98423F
:102CA0000BD0B0F1804F08D0A44B984205D0A44B74
:102CB000984202D0A34B984204D14FF68F731A402A
:102CC0004B881A43A04B984207D0A04B984204D09F
:102CD0004FF6FF431A400B891A4302804B68C362C8
:102CE0000B880385944B984202D0994B984201D1AE
:102CF0008B7A03860123838270474FF0FF31416056
:102D000000210180018141808172704701858282AA
:102D100070470A46002101884FF68F73194011430E
:102D20000180704741627047C16270470146486A3E
:102D300070470146088D704721B1028842F00202B7
:102D4000028004E002884FF6FD731A40028070474B
:102D500021B1028842F00402028004E002884FF6AA
:102D6000FB731A400280704721B1028842F0800252
:102D7000028004E002884FF67F731A400280704799
:102D800002884FF6F7731A40028002880A430280D5
:102D9000704702884FF6FF431A40028002880A43B8
:102DA0000280704721B1028842F00102028004E0F3
:102DB00002884FF6FE731A400280704770B50024F7
:102DC00000220023058C4FF6FE7635400584028CE8
:102DD0008388048B4FF68F752C40B51E2C400D88D0
:102DE0002C43751E2A408D892A434D882A43524D13
:102DF000A84202D0564DA84213D14FF6F7752A408B
:102E0000CD892A434FF6FB752A408D882A434FF619
:102E1000FF652B404FF6FF552B400D8A2B434D8A03
:102E20002B43838004838D684563028470BD70B535
:102E3000002400220023058C4FF6EF7635400584F0
:102E4000028C8388048B48F6FF752C404FF6FF45B3
:102E50002C400D884FF6FF7606EA05252C434FF6E9
:102E6000DF752A408D8906EA05152A434D8806EA52
:102E700005152A43304DA84202D0354DA8421DD138
:102E80004FF67F752A40CD894FF6FF7606EA051585
:102E90002A434FF6BF752A408D8806EA05152A4356
:102EA0004FF6FF352B404FF2FF752B400D8A06EA97
:102EB00085052B434D8A06EA85052B4383800483D1
:102EC0008D688563028470BD70B5002400220023E4
:102ED000058C4FF6FF6635400584028C8388848B11
:102EE0004FF68F752C404FF6FC752C400D882C4307
:102EF0004FF6FF552A408D894FF6FF7606EA0525E5
:102F00002A434D8806EA05252A430B4DA84202D0E4
:102F10000F4DA84238D14FF2FF752A40CD894FF6A8
:102F2000FF7606EA05252A434FF6FF352A408D88AD
:102F300006EA05252A4319E000000140000400408C
:102F400000080040000C0040001000400014004049
:102F5000000401400040014000440140004801409D
:102F600000180040001C0040002000404EF6FF7595
:102F70002B404DF6FF752B400D8A06EA05152B43B5
:102F80004D8A06EA05152B43838084838D68C563CB
:102F9000028470BD70B5002200230024058C4EF61B
:102FA000FF7635400584038C8488828B48F6FF7554
:102FB0002A404FF6FF452A400D884FF6FF7606EA75
:102FC00005252A434DF6FF752B408D8906EA053508
:102FD0002B434D8806EA05352B43FE4DA84202D00F
:102FE000FD4DA84208D14BF6FF752C400D8A4FF6D7
:102FF000FF7606EA85152C43848082838D680564FC
:10300000038470BD002101804180818081608181C5
:10301000C18101824182704770B5034600200024BF
:103020001846183001258D40ACB21D8CA5431D8477
:1030300009B108290AD100EB610005684FF68F76C7
:10304000354005600568154305600FE00D1FC5F3A9
:103050004E052844056848F6FF763540056005684A
:103060004FF6FF7606EA02263543056070BD4163E0
:10307000704781637047C1637047016470470A46B7
:103080000021018B4FF68F73194011430183704764
:103090000A460021018B48F6FF7319404FF6FF7373
:1030A00003EA02231943018370470A460021818BFA
:1030B0004FF68F7319401143818370470A460021F0
:1030C000818B48F6FF7319404FF6FF7303EA022322
:1030D0001943818370470A460021018B4FF6F7732D
:1030E00019401143018370470A460021018B4FF2BA
:1030F000FF7319404FF6FF7303EA0223194301835C
:1031000070470A460021818B4FF6F773194011432F
:10311000818370470A460021818B4FF2FF7319406B
:103120004FF6FF7303EA02231943818370470A466F
:103130000021018B4FF6FB73194011430183704747
:103140000A460021018B4FF6FF3319404FF6FF73FB
:1031500003EA02231943018370470A460021818B49
:103160004FF6FB7319401143818370470A460021D3
:10317000818B4FF6FF3319404FF6FF7303EA0223AA
:103180001943818370470A460021018B4FF67F73F4
:1031900019401143018370470A460021018BC1F396
:1031A0000E014FF6FF7303EA0223194301837047B0
:1031B0000A460021818B4FF67F73194011438183AA
:1031C00070470A460021818BC1F30E014FF6FF7351
:1031D00003EA02231943818370470A460021018CC8
:1031E0004FF6FD7319401143018470470A460021D0
:1031F000018C4FF6F77319401143018470470A465A
:103200000021018C4FF6DF7319404FF6FF7303EA7C
:1032100002131943018470470A460021018C4FF6BE
:103220007F7319404FF6FF7303EA021319430184B9
:1032300070470A460021018C4FF6FF5319404FF6A4
:10324000FF7303EA02231943018470470A460021F1
:10325000018C4FF2FF7319404FF6FF7303EA02230C
:103260001943018470470A460021018C4DF6FF7313
:1032700019404FF6FF7303EA023319430184704784
:1032800030B5002301248C40A3B2048C9C430484F9
:10329000048C02FA01F5ADB22C43048430BD30B584
:1032A000002304248C40A3B2048C9C430484048C2B
:1032B00002FA01F5ADB22C43048430BD828B4FF28B
:1032C000FF331A408283828B4FF6FF7303EA012398
:1032D0001A4382837047F0B50C4615460021002240
:1032E0000026078C4EF6FF7C07EA0C070784818BCB
:1032F000028C4FF6FF7707EA043640F6FF47394065
:103300004FF6FF7707EA052739434FF6FF7707EABD
:103310000337394345F6FF773A4046F480573A433E
:1033200081830284F0BD828B4FF6F3731A4082834F
:10333000828B0A4382837047F0B50C461546002104
:1033400000220026078C4FF6FF6C07EA0C07078463
:10335000818B028C4FF6FF7707EA04264FF60C7735
:1033600039404FF6FF7707EA03172F4339434FF2EF
:10337000FF573A4046F480773A4381830284F0BD98
:10338000028B4FF2FF331A400283028B4FF6FF731A
:1033900003EA01231A4302837047F0B50C46154631
:1033A000002100220026078C4FF6EF7C07EA0C076D
:1033B0000784018B028C4FF6FF7707EA041640F66C
:1033C000FF4739404FF6FF7707EA033739434FF697
:1033D000FF7703E0000001400004014007EA0527F1
:1033E00039434FF65F773A4046F010073A4301837E
:1033F0000284F0BD028B4FF6F3731A400283028BF6
:103400000A4302837047F0B50C461546002100229E
:10341000068C4FF6FE773E400684018B028C4FF6F9
:103420000C7631407E1C06EA03162E4331434FF6DC
:10343000F576324044F00106324301830284F0BD48
:1034400070B505460C46208850B92389A28861884A
:103450002846FFF7D8FFE1882846FFF7CBFF25E095
:10346000208804280AD12389A28861882846FFF78A
:1034700094FFE1882846FFF783FF17E0208808289B
:103480000AD12389A28861882846FFF755FFE18881
:103490002846FFF748FF09E02389A288618828466B
:1034A000FFF719FFE1882846FFF708FF70BD0021EC
:1034B00001804180012181800021C180018170470C
:1034C0002DE9F04105460C4600260127608808B921
:1034D000022600E00026A088012801D1022700E092
:1034E00001272088A0B92389A28861882846FFF790
:1034F0008AFFE1882846FFF77DFF23893A46314657
:103500002846FFF74AFFE1882846FFF739FF13E016
:103510002389A28861882846FFF73FFFE188284673
:10352000FFF72EFF23893A4631462846FFF76BFF07
:10353000E1882846FFF75EFFBDE8F0810146486B51
:1035400070470146886B70470146C86B704701465B
:10355000086C70470A884B881A438B881A43CB88BB
:103560001A430B891A434B891A438B891A43A0F8D3
:10357000442070470021018041808180C180018109
:1035800041818181704731B1B0F8442042F400425A
:10359000A0F8442005E0B0F84420C2F30E02A0F8E1
:1035A0004420704721B1828842F00402828004E006
:1035B00082884FF6FB731A408280704721B182885F
:1035C00042F00102828004E082884FF6FE731A40C6
:1035D000828070471AB183890B43838102E083891B
:1035E0008B43838170478182704702460020138A93
:1035F0000B4201D0012000E000207047CA43028244
:10360000704730B50246002000230024158A05EAE1
:103610000103958905EA010413B10CB1012000E012
:10362000002030BDCA430282704741EA0203A0F87D
:10363000483070471AB183890B43838102E0838944
:103640008B438381704721B1828842F008028280D7
:1036500004E082884FF6F7731A4082807047018930
:103660004FF6F8721140018170470A460021018926
:103670004FF68F73194011430181704730B50446EE
:103680000D4629462046FFF7F0FF208940F007004D
:10369000208130BD2DE9F04104460D4616461F46F7
:1036A000602D06D13B46012231462046FFF775FECC
:1036B00005E03B46012231462046FFF7A4FE29469D
:1036C0002046FFF7D2FF208940F007002081BDE8A7
:1036D000F08130B50C4600210189C9B24FF6FF7563
:1036E00005EA0325154325432943018130BD2DE912
:1036F000F04105460E4617469846002443463A4692
:1037000031462846FFF7E5FF2C894FF6F870044054
:1037100044F007044FF68F70044044F070042C818D
:10372000BDE8F081F0B504460D4616461F463B46FF
:10373000324629462046FFF7CCFF208940F48040DE
:103740002081F0BD82884FF68F731A408280828874
:103750000A438280704702894FF6F8731A4002814B
:1037600002890A430281704702894FF67F731A402B
:10377000028102890A4302817047F0B50C46154662
:103780001E460021002200230189028B038C4FF684
:10379000F877394021434FF6FC473A4040F2011791
:1037A0003A434FF6DD773B404FF6FF7707EA0617BF
:1037B0002F433B43018102830384F0BD21B1828802
:1037C00042F08002828004E082884FF67F731A40C4
:1037D00082807047A0F850107047000000BFFEE7DD
:1037E00010B504464FF48050E849086007E0E74907
:1037F0000868411EE54A116008B9FFF7EFFF022192
:10380000E348FFF718F90028F1D02146E048FFF718
:10381000DBF84FF48050DD49086007E0DB490868B9
:10382000411EDA4A116008B9FFF7D8FF0121D848D4
:10383000FFF701F90028F1D0D548FFF7C2F8C0B270
:1038400010BD70B505460E461446012C01DD46F04C
:1038500040060821CF48FEF729FC3046FFF7C0FF9D
:1038600005E02878FFF7BCFF601E84B26D1C012CB8
:10387000F7DA0821C748FEF717FC70BD00B587B01E
:1038800001210803FEF71EFE01210846FEF7D6FDC2
:1038900001211020FEF7D2FD01211020FEF7CEFD00
:1038A00001211020FEF7CAFD05221146BA48FEF795
:1038B0000AFC05220621B848FEF705FC052207216F
:1038C000B548FEF700FC02208DF8180000208DF8A6
:1038D0001A0002208DF81B008DF819002020059099
:1038E00005A9AD48FEF764FB8020059005A9AA480C
:1038F000FEF75EFB4020059005A9A748FEF758FBA0
:10390000A348FEF7D9FE0020ADF80000ADF8040092
:10391000ADF80600ADF808004FF40070ADF80A00ED
:103920000820ADF80C000020ADF80E000720ADF81F
:1039300010004FF48270ADF8020069469448FEF71B
:10394000E1FE01219248FEF7BEFF0820059001200C
:103950008DF8180000208DF81A0002208DF819004B
:1039600005A98C48FEF724FB08218A48FEF79CFB3A
:103970000120059000208DF818008DF81A00022013
:103980008DF8190000208DF81B0005A98148FEF76D
:103990000FFB0220059005A97E48FEF709FB07B042
:1039A00000BD38B5044600200090FFF767FF60783F
:1039B00021780843E178084321790843A178084336
:1039C0000090012220216846FFF73BFF38BD70B50B
:1039D00006460C461546012D02DD44F0C00401E008
:1039E00044F0800408216B48FEF760FB2046FFF797
:1039F000F7FE06E00020FFF7F3FE3070681E85B288
:103A0000761C002DF6DC08216248FEF74DFB70BDE8
:103A100038B5044600200090012221216846FFF7B6
:103A2000D6FF9DF8000000F0D0000090207861786B
:103A30000843A17808439DF8001008430090012234
:103A400021216846FFF7FDFE38BD38B50446002049
:103A50000090012238216846FFF7B9FF207861788D
:103A60000843A17808430090012238216846FFF7F7
:103A7000E8FE38BD38B50446012220216846FFF72C
:103A8000A6FF9DF8000000F0BF0000909DF8000028
:103A900020430090012220216846FFF7D2FE38BD66
:103AA00038B50446012220216846FFF790FF9DF8B3
:103AB000000000F07F0000909DF80000204300907F
:103AC000012220216846FFF7BCFE38BD38B5044608
:103AD000012220216846FFF77AFF9DF8000000F0E0
:103AE000DF0000909DF8000020430090012220217B
:103AF0006846FFF7A6FE38BD08B5012221216846B9
:103B0000FFF765FF9DF8000040F0400000900122A3
:103B100021216846FFF795FE08BD3EB50546002405
:103B2000012220216846FFF752FF0622292101A821
:103B3000FFF74DFF9DF8000010F0200002D0202874
:103B400020D10FE000240AE001A911F8140040B2CE
:103B500000EBC000400028602D1D601CC4B2032C87
:103B6000F2DB10E000240AE001A911F8140040B2D1
:103B700000EBC000C00028602D1D601CC4B2032CE7
:103B8000F2DB00E000BF00BF3EBD0000AC00002043
:103B90000030014000100240000002402DE9FE4FBD
:103BA000804681EA0300C00F0C46009021F00041DE
:103BB00023F00045B8EB0200A94105D2404621465A
:103BC00090461C460B46024623F00040104304D1A9
:103BD0004046214603B0BDE8F08F270DC7F30A0029
:103BE000C3F30A510290401A0190402866DAC3F3E9
:103BF000130040F4801B0098924620B10023D2EBC2
:103C0000030A63EB0B0B01985946C0F14002504682
:103C100000F089F906460D4650465946019A00F0D3
:103C2000A1F910EB08006141002487EA115284EAEF
:103C3000E7731A433BD0009A3AB3019A012A4FEA3C
:103C4000075210DC001B61EB02014FF0004202EA58
:103C50000752CDE90042001C41F5801132462B4647
:103C600000F09FF9B6E7001B61EB0201001C41F573
:103C7000801300185B412018A2F5001747EB0301E1
:103C800040EAD570B6196D4111E06D084FEA36066D
:103C900045EAC0754FEA0752001B61EB0201001CA8
:103CA00041F5801149084FEA300000195141324670
:103CB0002B4603B0BDE8F04F00F066B90098012232
:103CC00040000023D0EB020263EBE0730098214632
:103CD0004FEAE074B8EB000061EB0401E9E783F020
:103CE00000435BE781F0004158E72DE9FE4F81EA90
:103CF000030404F0004421F0004100944FF0000B55
:103D000023F0004350EA010402D052EA030404D134
:103D10000020014603B0BDE8F08FC3F30A54C1F39D
:103D20000A552C44A4F2F3340194A0FB0254C1F3CD
:103D3000130141F48011C3F3130343F4801301FB17
:103D4000024400FB034E840A970A44EA815447EA7E
:103D50008357A4FB076802958D0A05FB07854FEA88
:103D6000932C04FB0C542705029D4FEA065847EAA2
:103D70001637B5EB08056EEB070C870E920E47EA77
:103D8000811742EA8312A7FB0201B6EB0B0164EB39
:103D900000042B0D43EA0C335E1844EB1C50DA464A
:103DA0005146E7FB0201C5F313044FEA0B3343EA24
:103DB00014534FEA0432019C43EA0603A4F10C04B5
:103DC0000294009CCDE900B400F0EBF8A2E72DE9E5
:103DD000F04D81EA030404F0004B21F00045144645
:103DE0004FF0000A23F0004150EA050220D054EAC7
:103DF00001021DD0C5F30A570246C5F31303C1F3F0
:103E00001300C1F30A5640F4801543F48013A7EB66
:103E10000608101BD64608F2FD3873EB050002D3E6
:103E200008F1010801E092185B41B8F1000F03DAD4
:103E300000200146BDE8F08D00204FF480110646B9
:103E400084460EE0171B73EB050705D3121B63EBCB
:103E5000050306434CEA010C49084FEA300092186A
:103E60005B4150EA0107EDD152EA030012D082EA29
:103E7000040083EA0501084303D100224FF0004308
:103E800008E0101BAB4102D20122002302E06FF0D8
:103E9000010253101AEB06004CEB085110EB0A001C
:103EA00041EB0B01BDE8F04D00F06EB80EB5C10F4F
:103EB00080EAE0700844CA07002140F233438DE8ED
:103EC0000E000A460B4600F06CF803B000BD0EB5BC
:103ED00040F2334102910021CDE900110A460B4620
:103EE00000F05FF803B000BD70B5C1F30A5201F0F5
:103EF00000450024C1F3130140F2FF3341F4801167
:103F00009A4201DA002070BD40F233439A42A2F295
:103F1000334203DC524200F015F800E090402C439D
:103F2000F1D0404270BD202A04DB203A00FA02F1B1
:103F3000002070479140C2F1200320FA03F3194397
:103F400090407047202A04DB203A21FA02F0002139
:103F5000704721FA02F3D040C2F120029140084399
:103F600019467047202A06DBCB17203A41FA02F0A7
:103F700043EAE07306E041FA02F3D040C2F12002C6
:103F8000914008431946704710B5002B08DA401CD1
:103F900041F1000192185B411A4301D120F0010068
:103FA00010BD2DE9F04D92469B4611B1B1FA81F258
:103FB00002E0B0FA80F220329046FFF7B4FF0446E8
:103FC0000F4640EA0A0041EA0B0153465A460843AD
:103FD00003D120463946BDE8F08D114653EA010071
:103FE00015D0C8F140025046FFF7ACFF05460E461B
:103FF000504659464246FFF796FF084301D001203C
:1040000000E00020054346EAE0762C4337430A9857
:104010004FEA4453A0EB08004FEAD4240A304FF093
:10402000000244EA47544FEAD72502D50020014652
:10403000D1E7010510196941DDE908450019694119
:10404000BDE8F04DA0E72DE9F04D00231A461B1AFC
:104050008A4103DB00200146BDE8F08DC1F30A521E
:10406000C1F3130141F480154FF0000BD10702D1C9
:1040700000186D41521E0027044640F2FF113846D9
:1040800001EB620A3E468046024600204FF4801152
:10409000FFF758FFC2197141BB1846EB0100B4EBA2
:1040A000030C75EB000C04D3E41A65EB000517460E
:1040B0000E46241908F101006D4180463428E3DDE5
:1040C000F91946EB0600091BA84103D24FF0FF3255
:1040D000134601E0002213461BEB070046EB0A5192
:1040E000BDE8F04DFFF750BF064C074D06E0E06815
:1040F00040F0010394E8070098471034AC42F6D32F
:10410000FCF746F8C05A0008F05A0008000000000A
:1041100003B401984100009850EAC12018BF042060
:104120004A0D18BF40F0010040F2FF72B2EB515F40
:1041300008BF40F00200012808BF052002B0704708
:1041400070B59F482DED020B2DED068B079D25F0D8
:104150000044A0421DDC9B48844202DC0FD106983B
:1041600068B19DED060B53EC102B51EC100BFFF7D3
:1041700015FDBDEC068B02B041EC100B70BD002D9F
:10418000CCBF9FED910B9FED920BBDEC068B02B067
:1041900070BD9148A04215DD9048A042D8BF4FF0B5
:1041A000FF3440DD9DED060B51EC100BFFF7B0FF27
:1041B000042808BF00F0F4F99DED060BBDEC068B5A
:1041C00002B070BD9DED060B51EC100B00F062FAD1
:1041D00041EC100B82488DED060B9FED838BA042C6
:1041E0003CDD8348A0421FDD00249FED839B51EC02
:1041F000100B53EC192BFFF7D1FC9DED060B41EC96
:104200001A0B53EC192B51EC100BFFF76EFD53EC0E
:10421000182BFFF764FD53EC1A2BFFF7D8FD41EC88
:10422000100B8DED060B49E0012453EC182B51ECDB
:10423000100BFFF7B3FC9DED060B41EC190B53EC93
:10424000182B51EC100BFFF74AFD53EC192BFFF71D
:10425000BEFD41EC100B8DED060B2FE06848A0422F
:104260001FDD02249FED689B51EC100B53EC192BC2
:10427000FFF73BFD53EC182BFFF790FC9DED060B71
:1042800041EC180B53EC192B51EC100BFFF727FDE9
:1042900053EC182BFFF79BFD41EC100B8DED060B3B
:1042A0000CE053EC102B03249FED590B51EC100B39
:1042B000FFF78DFD41EC100B8DED060B9DED060B10
:1042C00053EC102B51EC100BFFF70FFD41EC180BCA
:1042D00053EC182BFFF709FD41EC190B4E48062152
:1042E000B0EE490AF0EE690A784400F0DAF853ECCF
:1042F000182B51EC100BFFF7F8FC41EC180B47485A
:10430000B0EE490AF0EE690A0521784400F0C9F8D8
:1043100053EC192B51EC100BFFF7E7FC41EC100BA1
:1043200051EC180B53EC102B002C0EDAFFF736FC77
:104330009DED061B53EC112BFFF7D7FC9DED061BE3
:1043400053EC112BFFF7CEFC35E0FFF727FC9DED7A
:10435000061B53EC112BFFF7C8FC41EC100B304847
:10436000784400EBC40090ED001B51EC100B53ECB3
:10437000112BFFF7B4FC9DED061B53EC112BFFF73F
:10438000AEFC41EC110B2748784400EBC40090EDE3
:10439000000B51EC110B53EC102BFFF7A3FC41EC7D
:1043A000100B002DA2BFBDEC068B02B070BD51EC0E
:1043B000100B81F0004141EC100BFFE60000000003
:1043C000000010440000F07F182D4454FB21F93FF9
:1043D000182D4454FB21F9BF0000DC3F0000203EB3
:1043E0000000F33F00000000000000000000F03F6C
:1043F0000000E63F00000000000000000000004058
:104400000080034000000000000000000000F83FB2
:10441000000000000000F0BFA41700005A170000C1
:10442000E41600009C16000000B52DED048BB0EEE4
:10443000408AF0EE608A83B051EC180BFFF703FE60
:1044400041EC190B19EE100A19EE901A8DED009B34
:10445000002818BF0120084320F00040C0F17F6011
:1044600000F1E040C00F14D018EE101A18EE900AB8
:104470008DED008B002918BF0121084320F000407A
:10448000C0F17F6000F1E040C00F04BF012000F0E8
:10449000A7F8B0EE490A03B0F0EE690ABDEC048B50
:1044A00000BD70B504462DED028B4D1E00EBC5001E
:1044B000B0EE408AF0EE608A90ED000B35F0060019
:1044C00017D053EC182B51EC100BFFF70EFC41ECFE
:1044D000100B6D1E04EBC50090ED001B51EC100B92
:1044E00053EC112BFFF75AFB41EC100B35F0060093
:1044F000E7D1022D36D0042D1CD0062D1CBFBDECFB
:10450000028B70BD53EC182B51EC100BFFF7EDFB39
:1045100094ED0A1B53EC112BFFF740FB53EC182BC7
:10452000FFF7E3FB94ED080B53EC102BFFF736FB82
:1045300041EC100B53EC182B51EC100BFFF7D5FB93
:1045400094ED060B53EC102BFFF728FB53EC182BC4
:10455000FFF7CBFB94ED041B53EC112BFFF71EFB75
:1045600041EC100B53EC182B51EC100BFFF7BDFB7B
:1045700094ED020B53EC102BFFF710FB53EC182BB0
:10458000FFF7B3FB94ED000B53EC102BFFF706FB8A
:10459000BDEC028B41EC100B70BD00000000000070
:1045A0009FED050B10B553EC102B51EC100BFFF7E2
:1045B0009CFB41EC100B10BD00000000000000103F
:1045C00002E008C8121F08C1002AFAD170477047DC
:1045D000002001E001C1121F002AFBD1704700003A
:1045E0000149086070470000CC00002010B5002A87
:1045F00006DA22F00042D21D22F00703102203E067
:10460000D21C22F003030C2213B19C188C4201D956
:10461000012010BD024401448360C0E90021C91A91
:10462000D018884202D810600246F9E700201060D6
:1046300010BD000008480068C0010BD5074800689D
:10464000C00707D0054880380068002802DA04490E
:104650000120087070470000FCED00E0800E00E0D3
:10466000C20000204FF06042D36F002BFCD0C36A21
:10467000D367D36F002BFCD0C07840EA0120A2F8AA
:104680007C0070474FF06041CA6F002AFCD081F86F
:104690007C00704741EC100B82B010EE900A8DED5B
:1046A000000B20F0004001909DED000B02B051EC9A
:1046B000100B704770B504000D4603D012B9207876
:1046C000012801D0802070BD204600F00BFB28B1EE
:1046D0002946204600F040F8002070BD812070BDC2
:1046E0000246084810B500EB810050F8040C002881
:1046F00006D0114600F0D4FCBDE8104000F0C0BC6C
:1047000010BD0000141B001010B50446808900285D
:1047100021D0608904EB800000690860607802287D
:1047200005D10021204600F0BBFC00F0A9FC04F1FB
:104730000C0000BFD0E85F1F491EC0E8521F002ACE
:10474000F8D16089401C80B26081E189884201D142
:1047500000206081042010BD10B500F0A1FCBDE870
:10476000104000F08DBC0000EFF3058109B18220FC
:104770007047DFF808C000DF70470000E15500080F
:10478000EFF305820AB182207047EFF31482144BD5
:1047900012F0030206D0012A1BD0022A11D0032AEC
:1047A00019D113E0EFF3088282F309881A78D2074F
:1047B0000AD0022282F31488BFF34F8FBFF36F8FAA
:1047C00009E01A78D20706D10322F3E71A78D20754
:1047D00001D0FF207047DFF80CC000DF70470000F9
:1047E00054590008F55500082DE90E40EFF30582F5
:1047F000B2B102004FF0800000D021B10090DDE99D
:10480000011203B000BD11780129F7D101A91046AA
:10481000FFF77AFF042801D00020EFE71020EDE732
:10482000DFF804C000DFECE7ED560008EFF3058188
:1048300009B100207047DFF808C000DF70470000B2
:1048400027570008EFF3058109B182207047DFF890
:1048500008C000DF7047000043570008EFF30582EF
:104860000AB182207047DFF808C000DF70470000FF
:10487000655700082DE97040EFF3058272B10C46D0
:1048800000F0E8FD4FF0004530B1210C04D1058B5C
:10489000C178A0B2FFF724FF284670BDDFF804C03E
:1048A00000DF70BD9B570008EFF305830BB182203A
:1048B0007047DFF808C000DF70470000C1570008EC
:1048C000EFF305820AB100207047DFF808C000DF6F
:1048D0007047000015580008DFF80CC000DFDFF853
:1048E0000CC000DFFEE7000085580008A158000852
:1048F000DFF804C000DF7047D9580008094C4FF0BA
:10490000FF3529462068FFF76FFF02460846102A48
:10491000F7D1FFF7EDFF0028F3D002460846904795
:10492000EFE70000200000204FEA000151E8000FEF
:1049300028B1036841E80032002AF7D17047BFF37D
:104940002F8F704710B568B161B10B3121F00302B0
:10495000016844680B1A1B1B934205D2084609687C
:104960000029F5D1002010BD3CB121180368C1E930
:104970000032016001F1080010BD4260083010BD36
:1049800070B50C46002812D04FF6FF71084D8842D2
:1049900004D22A680146104600F0AEFB2868447035
:1049A000044800F025F9BDE8704000F081BC70BDFE
:1049B000B4000020200300200F4810B50D494268C4
:1049C0000E480B680088934204D00A60CB88421ED0
:1049D0001A448A808A8882420AD1002008600648E8
:1049E00000F006F90146BDE81040034800F0B2BBF4
:1049F00010BD0000C400002020030020C0000020E3
:104A000070B5194DE86800282CD0A88A401EA882ED
:104A1000002621E0A06838B161684160606810B18B
:104A2000A16881606660A6600F482146183800F0D2
:104A300091FBA08AA8826078042804D10B49E08AFF
:104A400009880844A08201206070E068E860E0689E
:104A500008B10561E6602661A88A002802D1EC68E9
:104A6000002CD7D170BD000038030020C00000200A
:104A700070B504000FD00D4DA1780126286882780A
:104A800091420CD900F082FB286846702046BDE8B0
:104A9000704000F00DBC064800F0AAF8F7E7667019
:104AA0002146BDE87040024800F054BBB40000202D
:104AB000200300200321FFF763BF000010B5044668
:104AC000008B084320836278618B062A18D0052A60
:104AD00019D1084217D001EA00026283884320837B
:104AE000204600F08DFB01206070628B082120467B
:104AF00000F07EFB2146BDE81040034800F02ABBD1
:104B000031EA0002EAD010BD200300200246154819
:104B100010B500EB810050F8044C002C21D0208B04
:104B2000104320836278618B062A17D0052A18D19A
:104B3000084216D001EA000262838843208320469F
:104B400000F05EFB01206070628B0821204600F0BF
:104B50004FFB2046BDE81040FFF78ABF31EA000254
:104B6000EBD010BD141B001003460E4810B50468AE
:104B70008C46208B42B133EA000101D0062009E0C7
:104B800098432083022010BD10EA030201D0628303
:104B9000F6E70520C1B263836046FFF7F1FE01200E
:104BA00010BD0000B4000020814202D342688A4256
:104BB00001D80120704750E8002F0A6040E8001239
:104BC000002AF8D10020704768B161B1083900228D
:104BD00002E00246006830B18842FAD12AB100688A
:104BE0001060002070470120704700214160F8E705
:104BF0000146406842684A600B780022022B05D0CB
:104C0000012B03D0032B01D04260704743680BB1E6
:104C10009960426082607047810700D00020704731
:104C200070B5044600201546207001226270A17004
:104C30006060A060E0602061A082E08220836083E9
:104C400084F82000608C18B90448FFF76DFEA0625C
:104C500029462046BDE8704000F01CB860010010F5
:104C600008B1082901D2012070470144091F002220
:104C700001600A604260104670470000034800214E
:104C8000016003490968C18070470000C40000202A
:104C90004C59000810B5428C920803D10F4A126893
:104CA000C2F38D02836A03EB8202530700D5121F01
:104CB000403A4FF08073C2E90E1300234FEA030419
:104CC00042F823405B1C0E2BFAD3C3691362426285
:104CD000C162806A0249016010BD000048590008A5
:104CE000A52E5AE2C1898089081A704701220270F4
:104CF00000224270827042600281428110398281BA
:104D00008908C181704700002DE9F04104464078D0
:104D100000270E464FF00108012855D004F10C057C
:104D200002282BD0032818D0A089E189884262D2BA
:104D3000208904EB80000661D5E85F0F401CC5E8C0
:104D4000510F0029F8D12089401C80B22081E189CF
:104D5000884200D12781BDE8F0810846FFF7E4FDD5
:104D60000600F8D02046FFF743FF0546606800B90B
:104D700067703146284600F035FA31E02046FFF7EB
:104D800037FF0646606800B967700021304600F0C2
:104D900029FA2189F06904EB81010861D5E85F0FE8
:104DA000401CC5E8510F0029F8D12089401C80B271
:104DB0002081E189884200D1278186F80180304630
:104DC00000F01EFA314611E02046FFF711FF0546BC
:104DD000606800B9677032461021284600F008FA72
:104DE00085F80180284600F00BFA2946BDE8F0411D
:104DF000034800F0AFB9BDE8F0410320FBF7A6BBC4
:104E00002003002070B50446808915460026C8B3EB
:104E1000608904EB8000006908606089401C80B2F2
:104E20006081E189884200D16681607802280AD0D9
:104E300014F10C04D4E85F0F401EC4E8510F0029A0
:104E4000F8D1002070BD2046FFF7D2FE054660680D
:104E500000B966700021284600F0C4F92189E8698C
:104E600004EB810108612089401C80B22081E18926
:104E7000884200D12681284600F0C2F92846FFF773
:104E8000F7FDDEE7FFE73DB10A48626801682AB135
:104E9000204600F05FF907E0012070BD6160006806
:104EA000C0E901640120607008212846FFF768FD11
:104EB000F2E70000B4000020411C13D00B4A4FF66B
:104EC000FE7190420CD800EB4002C2EBC0120848C1
:104ED000036803EBC202521EB2FBF3F0884200D912
:104EE000084670474FF6FF707047000000093D000C
:104EF0005859000803210170002141704180416030
:104F0000816070472DE9F0410446408820B1234E6E
:104F1000A1683268914202D0FF20BDE8F081401EB6
:104F20000004000C608036D131686078DFF8708052
:104F30008870626801270AB32046FFF759FE0546CC
:104F4000002100F04FF9284600F05AF96780A5606B
:104F5000A87860703168D8F804008A788078824236
:104F600001D3284615E00E4800F0F4F829460C4815
:104F700000F0F0F8306847706F7009E0D8F804204E
:104F80009278824207D9064800F0E4F8306847700A
:104F90000020FFF76DFD0020BFE70000B4000020F7
:104FA0002003002070B5174E0D4604464188306836
:104FB00039B1A168814208D16088401C608000201E
:104FC00070BDA06080786070F6E775B16278807817
:104FD000824203D28870A06800F0E2F8606830B1C5
:104FE0002046316800F0B6F807E0012070BD306857
:104FF000606030680021C0E9011409212846FFF7EC
:10500000BFFCF2E7B400002070B51A480121006827
:10501000417000F0BBF8184D6C7816E005EBC40148
:1050200048680278E2B1012A1FD000F015F9E8784B
:10503000641C844200D100240F48801CD0E84F1F1C
:10504000491EC0E8421F002AF8D1A8780028E5D1FF
:105050006C700A48FFF7CCFDBDE8704000F028B93D
:10506000896889B2FFF72AFDE1E78968FFF74CFEFE
:10507000DDE70000B4000020901A0010200300209B
:105080000548017811B101214170704703494FF083
:105090008050086070470000BC00002004ED00E074
:1050A000F0B4144B9C1CDD784FEA030CD4E84F2F6E
:1050B000AA4202D1BFF32F8F0EE0521CC4E8462F44
:1050C000002EF3D1DCE84F2F541CAC4200D1002459
:1050D000CCE8464F002EF5D1DC78944205D903EB9D
:1050E000C202C2E90101F0BC7047F0BC0220FBF72C
:1050F0002DBA0000901A0010154A10B5D368FBB104
:1051000013469B8A09E000BFD2F80CC0BCF1000F27
:1051100016D0BCF81440624623448B42F4D3D468C2
:10512000C460D0600261D0F80CC0BCF1000F01D0A7
:10513000CCF81000591A8182908A401A908210BDD2
:105140000024C460D060C91A02619182848210BDBB
:105150003803002010B502780023022A03D0012A68
:1051600001D0032A00D1012391F802C000E01046CB
:10517000426812B194786445F9D24A6041601BB12B
:1051800002B19160886010BD0020FBE703494A68C6
:1051900042600022826048607047000020030020C7
:1051A00010B5836804462BB9607801280ED1084BEE
:1051B00003E09B6818780028FBD0204600F034F804
:1051C0002146BDE810401846FFF7C4BF10BD0000DF
:1051D0002003002090F82010406A09B16030704729
:1051E0002030704710B50C46FFF7F4FF046010BD87
:1051F00070B50C461546FFF7EDFFC0E9004570BDE0
:1052000010B5016900290ED0C268CA60C3680022C7
:105210003BB18B8A848A23448B82C3681961C26044
:1052200000E08A82026110BD816839B142684A603B
:105230004168002901D0806888607047054906E010
:105240004A68824202D1406848607047114600298E
:10525000F6D170472003002010B5416881B1FFF7F7
:10526000C7FC0446FFF7CCFF0120607001462046D2
:10527000FFF7B8FF2146BDE810400348FFF76ABFBB
:105280004188491C418010BD200300200648006869
:10529000D0E90910814203D300680449884202D052
:1052A0000120FBF753B97047B4000020A52E5AE245
:1052B0000749022248604270064A1278002A05D047
:1052C00006C98A4202D0C078FFF7DCB970470000F7
:1052D000B4000020C20000202DE9F04104460D4634
:1052E0009046FFF7A7F9002006463849384B02E000
:1052F00041F82060401C1A889042F9D3354830228A
:1053000001883548FFF772F93448006880B240F0F0
:105310000042334801683348FFF768F932480822F1
:10532000018832480068FFF761F9314FFF20314AA8
:10533000F8707E8400213846FFF772FC2E48042165
:10534000017046602D480170C66006618682786AE9
:105350002030FAF727FF2A482B490760022078708F
:105360002848067046700978C170284801684FF0D7
:10537000E020416186610721016125480168254AD5
:10538000114301600068224900F07F40C043143996
:10539000B0FA80F00968C0F10800C1F3022181422F
:1053A00000DB481C1A49091F0B686FF080728240AD
:1053B00063F317020A60FFF761FC42462946204664
:1053C000BDE8F041002300F06DB80000141B001090
:1053D00044590008605900080000001048590008AE
:1053E0006459000860010010885900081800002066
:1053F000F0020020490500082003002038030020A7
:10540000B4000020901A00106C5900085059000890
:1054100020ED00E00000FFFF0B4810B500680121FF
:105420004170FFF7B3FEFFF7C7FA08490888401C30
:105430000880FFF7E5FA00F05BFA0548FFF7D8FBB4
:10544000BDE81040FFF734BFB4000020C0000020CA
:1054500020030020002805D0810702D1017800290F
:1054600000D000207047000030B50D4C00232268AA
:1054700008E000BFB2F808C08C4505D81346126892
:10548000A1EB0C01002AF5D189B20260018112B1B1
:105490001589691A11810BB1186030BD206030BDCB
:1054A000B00000202DE9F041804616461F460D460B
:1054B00011F0FF0F00D14D1C1648FFF735FA04001C
:1054C00026D0280AA6626084E9B242462046E761F7
:1054D000FFF7A6FB01251048104905E000EB850207
:1054E00052F8042C22B16D1C0A889542F6D9002589
:1054F00000EB850040F8044C0948E570007818B1CD
:1055000001212046FFF7AEF82046FFF7B1FA284602
:10551000BDE8F08100000010141B00104459000881
:10552000C20000202DE9F041244C234F244B226877
:105530000026D17808B1814218D103EB8100567062
:1055400040F8046C1F48916AFFF72EFB20688662C2
:10555000397811B10021FFF785F81B482168FFF762
:1055600023FB00202660FFF783FA1FE01749098814
:1055700088421ED803EB800555F8044CCCB1204678
:10558000FFF752FE2046FFF73BFE45F8046C0D483E
:10559000A16AFFF709FBA662387818B100212046FE
:1055A000FFF760F821460848FFF7FEFA0020BDE843
:1055B000F081FF20FBE70000C2000020B4000020C3
:1055C000141B001060010010000000104459000876
:1055D00002480068002800D0C0787047B40000205E
:1055E00010B5002805D0FFF767FC80B2FFF762FA1C
:1055F000402010BD70B504000D4608D0206830B1C1
:10560000B4F9040010F1030F01DB032801DD86204B
:1056100070BD244E306840B1204600F0FBF8A0B1C8
:1056200000F030F900F03CF937E01F4840070CD19A
:105630001E4801681C48FFF713FB30B9E16831B11F
:105640001948FFF77FF9020002D1852070BD0022C2
:10565000B4F90400E168001D40EA01212068FFF769
:105660003BFE7068D8B1C078114901EB800050F85A
:10567000040C3060416A0D62406A0E4941630021AA
:105680000D4800F021F80D49086000210C4800F099
:10569000C1F80C49086000203060002070BDFF2078
:1056A00070BD0000B40000203014001068590008DC
:1056B000141B0010D9480008805900082000002061
:1056C000705900081C00002010B5040005D02168A6
:1056D00019B1606808B102780AB1002010BD8900D4
:1056E000103189B2FFF702FB606810BD3EB50400BF
:1056F0000D464FF0800012D0217801290FD12846A5
:10570000FFF7DAFB82B201A92046FFF77BFB0128F5
:1057100001D0102003E00DB1402000E00020DDE9C1
:10572000011203B030BD10B5002804D004680CB1DC
:10573000207808B1002010BD2046FFF7DBFB204693
:1057400010BD10B5FFF768FA10B10178032901D038
:10575000802010BDFFF7D6FBFF2801D0002010BD30
:10576000812010BD70B50D46FFF756FA040002D037
:105770002078032801D0802070BD2846FFF79CFBCD
:1057800081B22046FFF70EFC012801D0002070BD39
:105790000DB1C12070BD812070BD70B50C46FFF702
:1057A00059FE4FF0004108B1220C01D0084670BDEF
:1057B000058BC178A0B2FFF7A9F9284670BD00009B
:1057C00070B504460D46000C01D086201EE0084648
:1057D0002CB1FFF771FB81B20122A0B205E0FFF707
:1057E0006BFB81B200224FF6FF70FFF7BDF9022874
:1057F00002D04DB1402008E008200CB1214605E060
:1058000003490968498B01E000200021324670BD40
:10581000B400002070B504000E462BD0206848B3B9
:10582000B4F9040010F1030F24DB032822DCE16843
:1058300029B11148FFF786F8050015D000E00025D2
:10584000B4F90400E168001D40EA012133462A460C
:105850002068FFF727FE40B1084901EB80000849A6
:1058600050F8040C426A516370BD1DB129460248CC
:10587000FFF7AAF9002070BD30140010141B0010AF
:10588000D948000810B5FFF7A3FE002804D003494B
:1058900001EB800050F8040C10BD0000141B001038
:1058A00070B5FFF7D7FD040003D0608C18B1A56A6E
:1058B00002E0802070BD0025E078FFF733FEFF286E
:1058C00006D01DB10348A16AFFF77EF9002070BD24
:1058D000812070BD3014001010B5FFF79DF920B184
:1058E00001690A68C168104610BD0020014610BD5C
:1058F0002DE9F041114E3468002C18D02089104F4A
:10590000401E20814FF001080EE0254624683460D7
:10591000002229463868FEF7CDFE6879012808D0B4
:1059200085F80480002C02D020890028EDD0BDE845
:10593000F08169892846FFF797FDF3E7B000002062
:1059400020000020070000002003020105000100E4
:105950003F90020001000000E8030000000000008A
:105960005C010000D0120000600600001000000082
:10597000FD480008020000000100000020030000B4
:1059800004000000301B001000000000B9050008F2
:105990000000000001000000200300004506000890
:1059A0000000000001000000000000005D0600088B
:1059B0000000000001000000000000002D060008AB
:1059C0000000000001000000000000007506000853
:1059D0000000000001000000000000008D0600082B
:1059E000000000000100000000000000D0000020C6
:1059F0005A000000A6FFFFFF2D000000D3FFFFFFAD
:105A000005000000FBFFFFFFE80300000A000000A4
:105A1000140000000A1E0000C0020020CC0200207A
:105A2000D8020020E40200204FBB610567ACDD3FD7
:105A3000182D4454FB21E93F9BF681D20B73EF3FB5
:105A4000182D4454FB21F93FE2652F227F2B7A3C2D
:105A5000075C143326A6813CBDCBF07A8807703CE6
:105A6000075C143326A6913CC4EB98999999C9BF59
:105A7000711623FEC671BCBF6D9A74AFF2B0B3BF8E
:105A80009AFDDE522DDEADBF2F6C6A2C44B4A2BF4E
:105A90000D5555555555D53FFF8300922449C23FBA
:105AA0006E204CC5CD45B73F513DD0A0660DB13FEE
:105AB000EB0D76244B7BA93F11DA22E33AAD903F00
:105AC000F05A000800000020D0000000C045000887
:105AD000F05A000800000010501B0000D0450008DC
